:1000000062C0D1C12DC37AC079C078C077C076C034
:1000100075C074C073C072C071C070C06FC06EC054
:100020006DC06CC06BC004030904200362006C0047
:100030006F0067002E00760069006E0075002E00CC
:1000400063006F002E0069006E001403520043002D
:1000500035002D004D006F00750073006500120122
:10006000100100000008C016DC05000101020001BB
:1000700009022200010100800A09040000010300B6
:100080000000092101010001223400070581030855
:10009000006405010902A1010901A1000509190176
:1000A0002903150025019503750181029501750548
:1000B000810305010930093109381581257F75084B
:1000C00095038106C0C011241FBECFE5D4E0DEBF7A
:1000D000CDBF10E0A0E6B0E0E2E2F9E002C005909A
:1000E0000D92A436B107D9F710E0A4E6B0E001C044
:1000F0001D92A53AB107E1F7B4D311C481CFCF93D4
:10010000C62F20917A0024FF07C020917B0038E899
:10011000232720937B0003C02AE520937A002C2F0D
:10012000DC01ECE7F0E08D91819321501216DCF3B5
:100130008CE790E06C2F33D1CC5FC0937A00CF91E5
:100140000895CF93DF9380918B00835087FDA8C0E3
:1001500090918800209187002D3209F09FC088304F
:1001600009F09CC0CCE0D0E0C91BD109C157DF4FDA
:1001700083EC80936F008AE58093600010926400A6
:100180008881807619F0CE0148D27FC09A81109282
:1001900078008981882331F41092790028E730E0D3
:1001A00082E06FC0853019F490938C0067C0863070
:1001B00009F04EC08B81813041F48EE590E0909340
:1001C0008A008093890082E13FC0823041F480E759
:1001D00090E090938A008093890082E235C083305A
:1001E000F1F4992341F486E290E090938A008093A1
:1001F000890084E029C0913041F48AE290E0909334
:100200008A008093890080E21FC09230E1F48AE482
:1002100090E090938A008093890084E115C0813238
:1002200041F482E890E090938A008093890089E00D
:100230000BC0823241F482E990E090938A0080936F
:10024000890084E301C080E090E4909364001DC0C5
:10025000883069F0893019F490938E000FC08A308D
:1002600049F08B3059F48BE480937B0007C02EE873
:1002700030E002C028E730E081E003C028E730E04A
:1002800080E030938A00209389009F81992321F494
:100290009E81981708F4892F8093610010928B003B
:1002A0008091600084FF4CC0809161008F3F09F411
:1002B00047C0C82F893008F0C8E08C1B80936100CC
:1002C00080916F0098E8892780936F00CC2361F1BB
:1002D0008091890090918A00309164002C2F2150E8
:1002E00036FF0EC030E0A9014F585F4FFC01A0E778
:1002F000B0E064916D933196A417B507D1F70CC0A7
:10030000DC0130E0A9014F585F4FE0E7F0E06D916C
:100310006193E417F507D9F72F5F3F4F280F391F77
:1003200030938A002093890080E790E06C2F37D0CB
:10033000CC5FCC3019F08FEF80936100C0936000E8
:1003400084E196B3937031F48150D9F710928C0008
:1003500010928600DF91CF91089585B7826085BFA6
:100360008BB780648BBF8BE480937B008AE580939E
:100370007A000895A82FB92F80E090E041E050EA7C
:10038000609530E009C02D9182279795879510F0F0
:1003900084279527305EC8F36F5FA8F30895EADFDE
:1003A0008D939D930895CF93CFB7CF93C395B09B73
:1003B000E9F7B09B09C0B09B07C0B09B05C0B09BDC
:1003C00003C0B09B01C0A3C0DF93C0918800DD27AC
:1003D000C157DF4FB09B02C0DF91EBCF2F930F933C
:1003E0001F9306B32FEF00FB20F94F933F9316B3F3
:1003F0004FEF012700FB21F93BE031C04E7F012F79
:1004000016B3216028C0102F4D7F2260000006B374
:1004100029C04B7F2460012F000016B32BC016B3F8
:10042000477F28602AC04F7E06B320612CC04F7DD5
:1004300016B320622FC04F7B06B3206432C0422720
:1004400006B349934FEF0000102710FB20F916B3B5
:100450001370C9F1297F91F2012700FB21F906B33E
:10046000237F89F2315058F1102710FB22F916B37F
:10047000277E79F2012700FB23F92F7C81F206B356
:10048000102710FB24F92F7971F200C016B3012751
:1004900000FB25F92F7359F200C006B3102710FB9B
:1004A00026F9223040F200C016B3012700FB27F9DD
:1004B000243028F64F77206816B30000F9CF10E4F7
:1004C0001ABF002719C03B503195C31BD04010E420
:1004D0001ABF0881033CF9F00B34E9F02091860043
:1004E0001981110F1213EDCF4A81441F093641F1D2
:1004F0000D3211F0013E29F700938D003F914F918D
:100500001F910F912F91DF91CAB7C6FD4FCFCF91A9
:10051000CFBFCF91189520918D00222379F31091B0
:100520008B00112369F534306AF130938B002093EE
:100530008700109188003BE0311B3093880022C077
:1005400000918B000130E4F40AE54F7049F43091DA
:10055000600034FD19C000936000CFE6D0E018C001
:1005600030917A0034FD10C000937A00CBE7D0E0E0
:100570000FC02795A8F45150A9F4220F0000F9CF1D
:100580004AE503C042ED01C0432FC4E1D0E032E0B0
:1005900017B31360C09A17BB08B320E413E05F934E
:1005A000012756E008BB279520F4515021F4220F73
:1005B000F9CF012756E000003B5A08BBD0F227953F
:1005C00028F4515029F4220F0000F9CF012756E0FA
:1005D000279508BB20F4515021F4220FF9CF0127B1
:1005E00056E02991332308BB21F60C7F10918C0033
:1005F000110FC651D04008BB11F01093860010E4D3
:100600001ABF016017B31C7F402F4C7F5F9100C061
:1006100000C008BB17BB48BB71CFFC01808180764E
:100620008032D1F48181813041F487E690E090936B
:100630008A008093890084E00895823041F48EE638
:1006400090E090938A008093890081E008958A3039
:1006500029F4838180936E0080E0089580E00895FE
:100660001F920F920FB60F9211242F933F934F9327
:100670008F939F93AF93BF938399E1C038E23A95EC
:10068000F1F78399DCC048E24A95F1F78399D7C026
:1006900088E28A95F1F710926D0010926C0088E55F
:1006A00093E59BBD8ABDA5E8B1E01197F1F700C0C5
:1006B00000001DBC1CBC20E008B604FEFDCF88B7BE
:1006C000806188BF80916C0090916D00880F991FA8
:1006D00090936D0080936C00839B0FC0B8E2BA9535
:1006E000F1F7839B0AC038E23A95F1F7839B05C086
:1006F000019690936D0080936C002F5F2D30E1F692
:1007000080916C0090916D009C0120703B7F43E0D4
:100710002030340709F090C08F73907090936D0073
:1007200080936C0021E02093660010926700109285
:1007300068001092690010926A002091650030E014
:100740002817390749F420916200265F2093620040
:1007500027FF05C027E401C023E0209362008093B7
:1007600065008830910519F48091620015C08430CD
:10077000910521F480916200819505C08630910534
:1007800029F4809162008093680056C08230910500
:1007900031F4809162008195809369004DC087306B
:1007A000910539F480916200982F9195909368009B
:1007B000F3CF8930910519F48091620006C0813031
:1007C000910531F480916200819580936800E4CFB7
:1007D0008330910529F48091620080936800DBCF1B
:1007E0008530910521F481E080936B0006C000976D
:1007F00081F481E080936B0082E0809367008FEB4F
:1008000094EDA1E081509040A040E1F700C00000CD
:1008100013C08031910521F481E080936B0007C003
:100820008131910539F481E080936B008FEF8093E3
:100830006A0002C0109266008AB780688ABFBF91C2
:10084000AF919F918F914F913F912F910F900FBE3C
:100850000F901F901895939A8B988BB780688BBFD9
:100860000895DF93CF9300D0CDB7DEB78EB5896002
:100870008EBD80E29EE49A8389832EE088E190E039
:100880000FB6F894A89581BD0FBE21BD66DDB89A5C
:1008900080E007C0A895E7EBFBE03197F1F700C0D7
:1008A00000008150B9F7B898D6DF789453E0C52E90
:1008B00001E010E040E2E42E4EE4F42EDD24D39477
:1008C000A8953FDC89819A819C01215030403A8370
:1008D00029838530910530F4C09262001092650042
:1008E0001A83098380917A0084FFEACF80916600A1
:1008F000882331F310926600FA82E98287E690E05D
:1009000064E0FDDB80916B008823D1F210926B00D4
:100910001092670010926A00D0926600D1CFF894CE
:02092000FFCF07
:040922005AFF030075
:00000001FF
